:040000005AEF00F0C3
:100008005C82D9CF01F0DACF02F006D0AE50000EF4
:100018000001FB6F000EFA6FABB4F8D7ABA207D0A4
:10002800AB98AB88000E0001FB6F000EFA6F9EAA1A
:100038002FD09E9AAECF03F00350D8B429D00A0E21
:100048000318D8B425D00001FBBF06D0FB511CE132
:10005800100EFA5DD8B018D0000EFA25D96E010E30
:10006800FB21DA6E03C0DFFFFA4BFB2B0D0E0318E2
:10007800D8A40ED0000EFA25D96E010EFB21DA6E37
:10008800000EDF6E010E5B6E000EFB6F000EFA6F46
:100098009EA206D09E928CA402D08C9401D08C840F
:1000A80002C0DAFF01C0D9FF5C92110024EF1CF0F6
:1000B800000E7A6F000E796F50C08BF051C08CF033
:1000C80052C08DF053C08EF08EAF16D0000E7A6FEE
:1000D800010E796F8BC004F08CC005F08DC006F05E
:1000E8008EC007F07DEC1DF004C08BF005C08CF0CD
:1000F80006C08DF007C08EF0000E926F000E916F53
:10010800F6C07DF0F7C07EF079517A11D8A402D0FC
:1001180059A413D079517A11D8A404D0000E666F6F
:100128002B0E03D0000E666F2D0E656F65C018F19B
:10013800914B922B7D07D8A07E078BC004F08CC012
:1001480005F08DC006F08EC007F012EC17F004041D
:100158000510D8A443D0BF0E0001606FFF0E616F79
:100168005450626F636B605162276151632363511E
:1001780011E11A0E625DD8B00DD0180E9125046EEB
:10018800010E9221056EE00E066E3F0E076ED5EC4D
:100198001BF00CD0180E9125046E010E9221056EED
:1001A800E80E066E3F0E076ED5EC1BF00001FD0E43
:1001B8007D27FF0E7E234EC015F04FC016F0180E97
:1001C800176E010E186E7DC019F07EC01AF018EC7B
:1001D80019F015C04EF016C04FF012008BC004F095
:1001E8008CC005F08DC006F08EC007F012EC17F039
:1001F80004500510D8A443D0BF0E0001606FFF0E55
:10020800616F5450626F636B605162276151632361
:10021800635111E11A0E625DD8B00DD0180E912508
:10022800046E010E9221056EE40E066E3F0E076EF7
:10023800D5EC1BF00CD0180E9125046E010E9221FE
:10024800056EEC0E066E3F0E076ED5EC1BF0000136
:10025800FD0E7D27FF0E7E234EC015F04FC016F011
:10026800180E176E010E186E7DC019F07EC01AF0B8
:1002780018EC19F015C04EF016C04FF01200000E21
:100288000001936F000E946F800E956F3F0E966F6E
:10029800000E906F000E8F6F8BC004F08CC005F0BD
:1002A8008DC006F08EC007F0000E086E000E096EB5
:1002B800000E0A6E000E0B6EABEC19F0D8A01ED023
:1002C80076D093C004F094C005F095C006F096C0AF
:1002D80007F0000E086E000E096E200E0A6E410E21
:1002E8000B6E91EC0AF004C093F005C094F006C0C0
:1002F80095F007C096F000018F4B902B8BC01DF036
:100308008CC01EF08DC01FF08EC020F0000E086E4D
:10031800000E096E200E0A6E410E0B6E93C004F09B
:1003280094C005F095C006F096C007F091EC0AF06D
:1003380004C021F005C022F006C023F007C024F055
:1003480043EC16F0D8A01FD0BCD793C01DF094C0C2
:100358001EF095C01FF096C020F0000E216E000E12
:10036800226E200E236E410E246EADEC0DF01DC0E2
:1003780093F01EC094F01FC095F020C096F00001C5
:100388008F07D8A090078BC01DF08CC01EF08DC0C1
:100398001FF08EC020F093C021F094C022F095C0C9
:1003A80023F096C024F043EC16F0D8A0CED754C062
:1003B8000AF00B6AB0EC1CF00A500001806F80C094
:1003C8007FF0670E8019D8A419D0F851F911D8A474
:1003D80004D0000EF96F010EF86FF9BF05D0F9517E
:1003E80008E1F805D8B005D0000E7C6F060E7B6FCB
:1003F80008D0F8C07BF0F9C07CF003D0F9AFF9D78A
:10040800F3D7670E8019D8A422D090AF06D0FC0E7F
:100418008F5DFF0E9059D8A018D0FF0E606FFF0EA9
:10042800616F7BC062F07CC063F0605162276151EC
:1004380063238F51625D6351800A646F9051800A13
:100448006459D8A002D0660E01D0650E7F6F7BC0BC
:1004580071F07CC072F0670E8019D8A405D0660EC2
:100468007F19D8B490AF02D0714B722B660E7F19EA
:10047800D8A416D090AF0CD0000E936F000E946FD6
:10048800800E956F3F0E966F000E906F000E8F6F67
:10049800670E8019D8B404D08F51712790517223F8
:1004A800000E8A6F000E896F8BC081F08CC082F0BD
:1004B8008DC083F08EC084F093C073F094C074F044
:1004C80095C075F096C076F07BD081C01DF082C0D3
:1004D8001EF083C01FF084C020F093C021F094C0A8
:1004E80022F095C023F096C024F0ADEC0DF01DC0AD
:1004F80036F01EC037F01FC038F020C039F0E9ECE4
:1005080010F036C085F037C086F038C087F039C0A3
:1005180088F085C004F086C005F087C006F088C062
:1005280007F078EC17F004C077F005C078F081C0C8
:1005380046F082C047F083C048F084C049F093C0B9
:1005480008F094C009F095C00AF096C00BF085C079
:1005580004F086C005F087C006F088C007F091EC6B
:100568000AF004C04AF005C04BF006C04CF007C0C2
:100578004DF06EEC1CF046C081F047C082F048C0D8
:1005880083F049C084F093C01DF094C01EF095C05C
:100598001FF096C020F0000E216E000E226E200E75
:1005A800236E410E246EADEC0DF01DC093F01EC0FD
:1005B80094F01FC095F020C096F00001894B8A2B5B
:1005C8007151895D8A51800A606F7251800A605941
:1005D800D8A07BD793C004F094C005F095C006F06E
:1005E80096C007F0000E086E000E096EA00E0A6E87
:1005F800400E0B6E91EC0AF004C085F005C086F041
:1006080006C087F007C088F081C01DF082C01EF0C8
:1006180083C01FF084C020F085C021F086C022F07E
:1006280087C023F088C024F043EC16F0D8B003D07C
:10063800000E000118D081C004F082C005F083C00C
:1006480006F084C007F085C008F086C009F087C0AE
:100658000AF088C00BF0ABEC19F0D8A00BD0000161
:1006680077B108D0000E856F000E866F000E876F79
:10067800000E886F8BC036F08CC037F08DC038F014
:100688008EC039F085C03AF086C03BF087C03CF098
:1006980088C03DF027EC0CF036C081F037C082F0FE
:1006A80038C083F039C084F081C01DF082C01EF0CC
:1006B80083C01FF084C020F0000E086E000E096E83
:1006C800200E0A6E410E0B6E73C004F074C005F064
:1006D80075C006F076C007F091EC0AF004C021F06E
:1006E80005C022F006C023F007C024F043EC16F042
:1006F800D8A024D000018F4B902B73C004F074C095
:1007080005F075C006F076C007F0000E086E000E02
:10071800096E200E0A6E410E0B6E91EC0AF004C0B1
:1007280073F005C074F006C075F007C076F0660E69
:1007380000017F19D8A402D0714B722B73C093F0BB
:1007480074C094F075C095F076C096F0650E0001FF
:100758007F19D8B405D08FC06FF090C070F004D066
:10076800000E706F000E6F6F000E6E6F000E6D6FD3
:10077800000E6C6F000E6B6F000E8A6F000E896F93
:10078800C7D081C01DF082C01EF083C01FF084C096
:1007980020F093C021F094C022F095C023F096C0B9
:1007A80024F0ADEC0DF01DC036F01EC037F01FC0B0
:1007B80038F020C039F0E9EC10F036C085F037C0C9
:1007C80086F038C087F039C088F085C004F086C04C
:1007D80005F087C006F088C007F078EC17F004C071
:1007E80077F005C078F059B80DD00001775178112D
:1007F800D8A408D0670E8019D8B470AF03D06B4B5B
:100808006C2B3AD000016D516E11D8B470AF22D064
:10081800180E9125D96E010E9221DA6E2E0EDF6E1A
:10082800914B922B7D07D8A07E07000E6E6F010EAC
:100838006D6F10D0180E9125D96E010E9221DA6EC7
:10084800300EDF6E914B922B7D07D8A07E076B0789
:10085800D8A06C076B516C11D8A4ECD7180E912551
:10086800D96E010E9221DA6E7751300FDF6E914BFF
:10087800922B7D07D8A07E0781C046F082C047F042
:1008880083C048F084C049F093C008F094C009F0D0
:1008980095C00AF096C00BF085C004F086C005F03C
:1008A80087C006F088C007F091EC0AF004C04AF04F
:1008B80005C04BF006C04CF007C04DF06EEC1CF0C4
:1008C80046C081F047C082F048C083F049C084F038
:1008D80093C01DF094C01EF095C01FF096C020F084
:1008E800000E216E000E226E200E236E410E246E25
:1008F800ADEC0DF01DC093F01EC094F01FC095F034
:1009080020C096F000016F07D8A07007894B8A2B8A
:100918007151895D8A51800A606F7251800A6059ED
:10092800D8B008D092BF2DD7925104E14B0E915DFB
:10093800D8A027D76D516E11D8B459A80AD0180E6F
:100948009125D96E010E9221DA6E2E0EDF6E914B33
:10095800922B180E9125D96E010E9221DA6E000E97
:10096800DF6E650E7F19D8A4A3D0000E8A6F4F0ED4
:10097800896F180E8925D96E010E8A21DA6E000E4C
:10098800DF6E000E7A6F000E796F90AF08D0000E00
:100998007A6F010E796F8F6D901FD8B0902B000E73
:1009A8007C6F020E7B6F2AD08907D8A08A07180EA1
:1009B8008925D96E010E8A21DA6E8FC004F090C0A5
:1009C80005F0000E076E0A0E066EACEC1AF0045025
:1009D800300FDF6E8FC004F090C005F0000E076E78
:1009E8000A0E066EF0EC19F004C08FF005C090F006
:1009F8007B07D8A07C077D07D8A07E078F51901170
:100A0800D8A4D2D77CBF05D07C51CEE17B05D8B025
:100A1800CBD78907D8A08A0779517A11D8A404D0EE
:100A2800000E686F2B0E03D0000E686F2D0E676FD7
:100A3800180E8925D96E010E8A21DA6E67C0DFFF8C
:100A48007D07D8A07E078907D8A08A07BF0E606FE8
:100A5800FF0E616F5450626F636B60516227615182
:100A68006323635104E11A0E625DD8A004D0000E1E
:100A78006A6F650E03D0000E6A6F450E696F180E17
:100A88008925D96E010E8A21DA6E69C0DFFF7D07DC
:100A9800D8A07E07180E9125046E010E9221056ECE
:100AA800180E8925066E010E8A21076ED5EC1BF0FB
:100AB8004EC015F04FC016F0180E176E010E186EC6
:100AC8007DC019F07EC01AF018EC19F015C04EF070
:100AD80016C04FF012009951D96EDA6ADECFF6FFD0
:100AE800DDCFF7FF0800F550250AD8A45DD399514A
:100AF800D96EDA6ADE2A000EDD22000EF76F000ECC
:100B0800F66FF6C059F0F7C05AF0F869F969000EA7
:100B1800A96F000E13D059809951D96EDA6ADE2A6E
:100B2800000EDD222DD05982F7D75984F5D7598682
:100B3800F3D75988F1D7000EA96F010EA86F20D0FE
:100B48009951D96EDA6ADECFF6FFDDCFF7FF0800DC
:100B5800F5509B6F9C6B9C51000AD8A4ECD79B5115
:100B6800200AD8B4E4D7030AD8B4E3D7080AD8B41B
:100B7800DCD7060AD8B4CFD71D0AD8B4D4D7DBD768
:100B8800A851A911D8B4DCD759B059929951D96E46
:100B9800DA6ADECFF6FFDDCFF7FF0800F5502E0A40
:100BA800D8A457D0000EF96F000EF86F9951D96E7E
:100BB800DA6ADE2A000EDD229951D96EDA6ADECFB2
:100BC800F6FFDDCFF7FF0800F5502A0AD8A413D0A6
:100BD8009951D96EDA6ADE2A000EDD229A51D96E51
:100BE800DA6A020EDF26DF5CD96EDA6ADECFF8F049
:100BF800DECFF9F02ED09951D96EDA6ADECF0BF03C
:100C0800DDCF0CF055EC14F00BC0F8F00CC0F9F087
:100C180006D09951D96EDA6ADE2A000EDD22D00E8E
:100C280000019B6FFF0E9C6F9951D96EDA6ADECF77
:100C3800F6FFDDCFF7FF0800F5509D6F9E6B9B51C7
:100C48009D279C519E239E5104E10A0E9D5DD8A0CC
:100C5800E0D79951D96EDA6ADECFF6FFDDCFF7FF1C
:100C68000800F5500A6E0B6AB0EC1CF00A5000013F
:100C7800BE6FBE51D8B433D09951D96EDA6ADECF7F
:100C88009BF0DDCF9CF0010E9B27000E9C239BC0A0
:100C9800F6FF9CC0F7FF0800F5500A6E0B6AB0EC2F
:100CA8001CF00A500001BF6FBF51D8B418D0995139
:100CB800D96EDA6ADECF9BF0DDCF9CF0020E9B275F
:100CC800000E9C239BC0F6FF9CC0F7FF0800F55060
:100CD8000A6E0B6AB0EC1CF00A500001C06F995103
:100CE800D96EDA6ADECFF6FFDDCFF7FF0800F550E0
:100CF800630AD8A41DD09951D96EDA6ADE2A000E8B
:100D0800DD229A51D96EDA6ADF50DF2ADF2AD96EDE
:100D1800DA6ADF50C16F97C00EF098C00FF0C1C0FB
:100D280010F080EC18F00EC097F00FC098F0120089
:100D38009951D96EDA6ADECFF6FFDDCFF7FF0800EA
:100D4800F550640AD8B40CD09951D96EDA6ADECF5E
:100D5800F6FFDDCFF7FF0800F550690AD8A436D0B2
:100D68009951D96EDA6ADE2A000EDD229A51D96EBF
:100D7800DA6ADF50DF2ADF2AD96EDA6ADECFAAF014
:100D8800DDCFABF0000EABBFFF0EAC6FAD6FAE6F3B
:100D9800AF6FB06FB16F97C020F098C021F0AAC0B4
:100DA80022F0ABC023F0ACC024F0ADC025F0AEC03B
:100DB80026F0AFC027F0B0C028F0B1C029F0F1ECA0
:100DC8000EF020C097F021C098F012009951D96E0A
:100DD800DA6ADECF04F0DDCF05F0F00E066E3F0EC6
:100DE800076E000E096E020E086ED0EC15F0045066
:100DF8000510D8B416D000019951D96EDA6ADECF41
:100E080004F0DDCF05F0F60E066E3F0E076E000EFD
:100E1800096E020E086ED0EC15F004500510D8A427
:100E280056D000019951D96EDA6A020EDE26000EFC
:100E3800DD229A51D96EDA6ADFCF9BF0040EDF26E5
:100E48009B51D96EDA6ADECF9CF0DECF9DF0DECF03
:100E58009EF0DECF9FF09CC0A0F09DC0A1F09EC088
:100E6800A2F09FC0A3F0A46BA3BFA469A4C0A5F07F
:100E7800A4C0A6F0A4C0A7F0A0C0AAF0A1C0ABF07F
:100E8800A2C0ACF0A3C0ADF0A4C0AEF0A5C0AFF056
:100E9800A6C0B0F0A7C0B1F097C020F098C021F06C
:100EA800AAC022F0ABC023F0ACC024F0ADC025F03E
:100EB800AEC026F0AFC027F0B0C028F0B1C029F00E
:100EC800F1EC0EF020C097F021C098F01200660EE9
:100ED8000001BE19D8A437D09951D96EDA6ADECF8D
:100EE800F6FFDDCFF7FF0800F5CFC1F09951D96EB5
:100EF800DA6ADE2A000EDD229A51D96EDA6ADFCF6D
:100F08009BF0040EDF269B51D96EDA6ADECFBAF069
:100F1800DECFBBF0DECFBCF0DECFBDF097C04EF029
:100F280098C04FF0BAC050F0BBC051F0BCC052F0EE
:100F3800BDC053F0C1C054F05CEC00F04EC097F057
:100F48004FC098F01200BE0E046E056AF30E066ECE
:100F58003F0E076E000E096E020E086ED0EC15F0FB
:100F680004500510D8A458D000019951D96EDA6AF6
:100F7800DECF9BF0DDCF9CF0010E9B27000E9C235B
:100F88009BC0F6FF9CC0F7FF0800F5CFC1F0BF0E6D
:100F98009B6FFF0E9C6F9951D96EDA6ADECFF6FF10
:100FA800DDCFF7FF0800F5509D6F9E6B9B519D2785
:100FB8009C519E239E5102E11A0E9D5D9A51D96E55
:100FC800DA6ADFCF9BF0040EDF269B51D96EDA6A0E
:100FD800DECFBAF0DECFBBF0DECFBCF0DECFBDF0A7
:100FE8009951D96EDA6A020EDE26000EDD2297C00C
:100FF8004EF098C04FF0BAC050F0BBC051F0BCC022
:1010080052F0BDC053F0C1C054F05CEC00F04EC0CB
:1010180097F04FC098F0120000019951D96EDA6A22
:10102800DECFF6FFDDCFF7FF0800F550750AD8A42C
:1010380037D09951D96EDA6ADE2A000EDD229A512C
:10104800D96EDA6ADF50DF2ADF2AD96EDA6ADECF94
:101058009BF0DDCF9CF09BC0B2F09CC0B3F0B46BAA
:10106800B56BB66BB76BB86BB96B97C020F098C00F
:1010780021F0B2C022F0B3C023F0B4C024F0B5C050
:1010880025F0B6C026F0B7C027F0B8C028F0B9C020
:1010980029F012EC10F020C097F021C098F012004F
:1010A8009951D96EDA6ADECF04F0DDCF05F0300E43
:1010B800066E3F0E076E000E096E020E086ED0EC2B
:1010C80015F004500510D8A441D000019951D96EEB
:1010D800DA6A020EDE26000EDD229A51D96EDA6A2D
:1010E800DFCF9BF0040EDF269B51D96EDA6ADECF84
:1010F8009CF0DECF9DF0DECF9EF0DECF9FF09C51BE
:10110800B26F9D51B36F9E51B46F9F51B56FB66B5F
:10111800B76BB86BB96B97C020F098C021F0B2C01C
:1011280022F0B3C023F0B4C024F0B5C025F0B6C097
:1011380026F0B7C027F0B8C028F0B9C029F012ECE3
:1011480010F020C097F021C098F0120000019951CA
:10115800D96EDA6ADECFF6FFDDCFF7FF0800F5506B
:10116800250AD8A416D09951D96EDA6ADE2A000E5B
:10117800DD22000E066E250E056E97C007F098C09A
:1011880008F0E4EC1AF0000E0001986F010E976F5A
:1011980012009951D96EDA6ADE2A000EDD22000E9D
:1011A800986F000E976F12009951D96EDA6ADECFE8
:1011B800F6FFDDCFF7FF0800F550056E066A97C009
:1011C80007F098C008F0E4EC1AF000019951D96EC4
:1011D800DA6ADE2A000EDD22D6D7000E0101726F10
:1011E800000E736F000E746F000E756F000E836F24
:1011F800000E876F000E866F000E7E6F000E7F6FE9
:10120800000E806F000E816F63EC19F0000E056E02
:10121800640E046EE9EC1CF06A0E0001C76F3F0E05
:10122800C86FDEEC1DF0BCEC1DF0BD0E0001C76FF1
:101238003E0EC86FDEEC1DF0000E0101846F845174
:1012480003EC1DF00101842B010E8465F8D7000E14
:10125800836F000E826F000E856F85C158F0030EF4
:101268005816D8A41ED08551D8B41BD0835103EC8E
:101278001DF0586E58500101866F876B8651871193
:10128800D8B40CD0830E0001C76F3F0EC86F86C15B
:10129800C9F087C1CAF0DEEC1DF0FFD7832B000E22
:1012A800826F82C108F083514DEC1BF0586E585084
:1012B8000101866F876B822B86518711D8B40CD0B9
:1012C800830E0001C76F3F0EC86F86C1C9F087C182
:1012D800CAF0DEEC1DF0FFD77E0E0001EF6F010EA5
:1012E800F06F1AEC1BF0EFC086F1F0C087F1865161
:1012F8008711D8B40BD0F20E0001C76F3E0EC86F2D
:1013080085C1C9F0CA6BDEEC1DF0FFD7140E0001D1
:10131800C76F3F0EC86F85C1C9F0CA6B7EC1CBF0DD
:101328007FC1CCF080C1CDF081C1CEF0DEEC1DF0E4
:101338000101852B070E856590D70F0E056EA00E4F
:10134800046EE9EC1CF0F90E0001C76F3F0EC86F80
:10135800DEEC1DF0000E0101836F000E826F000E9F
:10136800856F000E846F845103EC1DF00101842BFE
:10137800010E8465F8D7030E056EE80E046EE9ECDD
:101388001CF0C40E0001C76F3F0EC86F72C1C9F0D0
:1013980073C1CAF074C1CBF075C1CCF0DEEC1DF09E
:1013A800010E01017227000E73237423752385C172
:1013B80058F0030E5816D8A42CD08551D8B429D08B
:1013C800000E056E640E046EE9EC1CF001018351F9
:1013D80003EC1DF0586E58500101866F876B000EA4
:1013E800056E640E046EE9EC1CF00101865187114C
:1013F800D8B40CD0830E0001C76F3F0EC86F86C1EA
:10140800C9F087C1CAF0DEEC1DF0FFD7832B000EB0
:10141800826F82C108F083514DEC1BF0586E585012
:101428000101866F876B822B000E056E0A0E046E13
:10143800E9EC1CF0010186518711D8B40CD0830E59
:101448000001C76F3F0EC86F86C1C9F087C1CAF0D7
:10145800DEEC1DF0FFD7D40E0001C76F3F0EC86F3A
:1014680085C1C9F0CA6BDEEC1DF0760EE06F010E87
:10147800E16F7A0EE26F010EE36FBDEC11F0E0C090
:1014880086F1E1C087F1000E056E0A0E046EE9ECE4
:101498001CF0010186518711D8A42ED076C146F0E0
:1014A80077C147F078C148F079C149F032EC1AF0B9
:1014B80046C06EF147C06FF148C070F149C071F184
:1014C800330E0001C76F3F0EC86F6EC1C9F06FC100
:1014D800CAF070C1CBF071C1CCF0000ECE6FF80E1F
:1014E800CD6F7AC1CFF07BC1D0F07CC1D1F07DC186
:1014F800D2F0DEEC1DF00BD0500E0001C76F3F0E8E
:10150800C86F86C1C9F087C1CAF0DEEC1DF00101C1
:10151800852B070E85654BD71DD70750800B106E9E
:1015280007500724126E06BE12801250D8B40DD090
:101538001228D8A408D0000E046E000E056E000E06
:10154800066E000E076E068E08D0000E046E000EA2
:10155800056E000E066E000E076E0B50800B101AFB
:101568000B500B24116E0ABE11801150D8B40DD047
:101578001128D8A408D0000E086E000E096E000EBF
:101588000A6E000E0B6E0A8E08D0000E086E000E52
:10159800096E000E0A6E000E0B6E1150D8B403D0FF
:1015A8001250D8A409D0000E046E000E056E000E6D
:1015B800066E000E076E12000A500402F3CF1BF0ED
:1015C800F4CF1CF01B50136E146A156A166A1C506F
:1015D800176E186A196A1A6A09500502F3CF1BF0C8
:1015E800F4CF1CF01B501326000E142215221622CD
:1015F8001C501726000E182219221A22085006021B
:10160800F3CF1BF0F4CF1CF01B501326000E14224E
:10161800152216221C501726000E182219221A22EB
:1016280015C016F014C015F013C014F0136A085052
:101638000502F3CF1BF0F4CF1CF01B5013261C50EF
:101648001422000E1522000E162209500402F3CFB0
:101658001BF0F4CF1CF01B5013261C501422000E54
:101668001522000E162215C016F014C015F013C06E
:1016780014F0136A08500402F3CF1BF0F4CF1CF0E7
:101688001B5013261C501422000E1522000E162281
:101698000A500502F3CF1BF0F4CF1CF01B5017269D
:1016A8001C501822000E1922000E1A220950060298
:1016B800F3CF1BF0F4CF1CF01B5017261C50182238
:1016C800000E1922000E1A220A500602F3CF1BF050
:1016D800F4CF1CF01B500C6E1C500D6E0E6A0F6A76
:1016E8000EC00FF00DC00EF00CC00DF00C6A0C50BF
:1016F80017260D5018220E5019220F501A22165074
:101708001726000E182219221A2215C016F014C026
:1017180015F013C014F0136A115012C00CF00D6AC2
:101728000C26000E0D22820E0C241B6EFF0E0D20BF
:101738001C6E0FD0D8901736183619361A3616BEC2
:101748001780D89013361436153616361B06D8A0CF
:101758001C0619AEEFD7000E116E16AE17D0FF0E8D
:1017680013140C6EFF0E14140D6EFF0E15140E6E6E
:101778007F0E16140F6E0C500D100E100F10D8B4EB
:1017880003D0010E116E02D017B0FBD71150D8B498
:101798001FD0010E1726000E182219221A221AA08D
:1017A80017D017C00CF018C00DF019C00EF01AC0F1
:1017B8000FF00F340F320E320D320C320CC017F00E
:1017C8000DC018F00EC019F00FC01AF01B4A1C2AE1
:1017D8001CBE0DD01C5003E11B28D8A008D0000E59
:1017E800176E000E186E800E196E7F0E20D01CBE6C
:1017F80005D01C500EE11B04D8B00BD0000E176E9C
:10180800000E186E000E196E000E1A6E000E106E85
:101818000FD01BC012F0FF0E1716FF0E18167F0E02
:101828001916000E1A1612B0198ED89012301A6EA8
:1018380010501A1217C004F018C005F019C006F0AD
:101848001AC007F012003950800B426E3950392403
:10185800446E38BE44804450D8B40DD04428D8A42F
:1018680008D0000E366E000E376E000E386E000E71
:10187800396E388E06D0000E366E000E376E000EAA
:10188800386E000E396E3D50800B436E425043183F
:10189800D8A4428C3D503D24436E3CBE4380435007
:1018A800D8B40DD04328D8A408D0000E3A6E000E44
:1018B8003B6E000E3C6E000E3D6E3C8E06D0000E58
:1018C8003A6E000E3B6E000E3C6E000E3D6E4450AC
:1018D800435CD8B022D042AC02D0800E421A44C039
:1018E80045F043C044F045C043F036C045F03AC027
:1018F80036F045C03AF037C045F03BC037F045C038
:101908003BF038C045F03CC038F045C03CF039C029
:1019180045F03DC039F045C03DF0000E456E4450DD
:1019280043C03EF03F6A3E5E000E3F5A3FBE2CD099
:101938003F5004E11A0E3E5CD8A026D0365037102E
:1019480038103910D8B402D0010E01D0000E456EFF
:10195800000E366E000E376E000E386E000E396EB1
:1019680043C044F015D045A005D0D89045300109B2
:10197800456E02D0D890453236B0458E393439326A
:10198800383237323632442A4350445CD8A0EBD739
:1019980042BC28D04450D8A409D0000E366E000EA0
:1019A800376E000E386E000E396E12003A50362629
:1019B8003B5037223C5038223D50392239A071D053
:1019C80045A005D0D89045300109456E02D0D89081
:1019D800453236B0458E39343932383237323632BC
:1019E800442A5FD03A50365C3B5037583C50385800
:1019F8003950800A3E6E3D50800A3E58D8B025D0F6
:101A080036503A5C3E6E37503B583F6E38503C5823
:101A1800406E39503D58416EFF0E3E24366EFF0E23
:101A28003F20376EFF0E4020386EFF0E4120396E82
:101A3800800E421A456C4550D8A40FD0010E3626A8
:101A4800000E37223822392208D03A50365E3B50F1
:101A5800375A3C50385A3D50395A3650371038109A
:101A68003910D8A41CD04550D8A419D0000E366E11
:101A7800000E376E000E386E000E396E1200D890C8
:101A8800363637363836393645BE368045A002D028
:101A9800D88001D0D89045364450D8A4440638AEF2
:101AA800EED7000E436E45AE0BD045C03EF07F0E1C
:101AB8003E16D8B403D0010E436E02D036B0FBD721
:101AC8004350D8B420D0010E3626000E37223822D3
:101AD800392239A018D036C03EF037C03FF038C0A0
:101AE80040F039C041F04134413240323F323E3259
:101AF8003EC036F03FC037F040C038F041C039F042
:101B08004428D8A4442A4428D8B403D04450D8A49C
:101B18000DD0000E366E000E376E000E386E000EB9
:101B2800396E4450D8A402D0000E426E44A002D0B0
:101B3800388E01D0389ED8904430396E42BE398EE6
:101B480036C036F037C037F038C038F039C039F011
:101B580012002050800B2D6E20502024346E1FBEA2
:101B680034803450D8B40DD03428D8A408D0000E0E
:101B78001D6E000E1E6E000E1F6E000E206E1F8E54
:101B880006D0000E1D6E000E1E6E000E1F6E000E9B
:101B9800206E2450800B2D1A24502424356E23BE29
:101BA80035803550D8B40DD03528D8A408D0000ECB
:101BB800216E000E226E000E236E000E246E238E00
:101BC80006D0000E216E000E226E000E236E000E4F
:101BD800246E2150221023102410D8A417D0000EF0
:101BE8001D6E000E1E6E000E1F6E000E206E800E03
:101BF8001F127F0E20122D5020121DC01DF01EC076
:101C08001EF01FC01FF020C020F012003450D8A4CE
:101C180009D0000E1D6E000E1E6E000E1F6E000E07
:101C2800206E1200355034C025F0266A255E000E5D
:101C3800265A7F0E25242E6E000E26202F6E1DC0DC
:101C480029F01EC02AF01FC02BF020C02CF0000E77
:101C58001D6E000E1E6E000E1F6E000E206E000E12
:101C6800306E000E316E000E326E000E336E000EB6
:101C7800356E28D03550D8B411D0D89029362A36A8
:101C88002B362C36D8901D361E361F36203633BEDE
:101C98001D80D89030363136323633362150295CA3
:101CA80022502A5823502B5824502C58D8A009D0F9
:101CB800338C2150295E22502A5A23502B5A245003
:101CC8002C5A352A190E3564D5D729502A102B10CD
:101CD8002C10D8B411D030800FD0D8901D361E36B5
:101CE8001F36203633BE1D80D89030363136323616
:101CF80033362E06D8A02F061FAEEFD7000E356E4E
:101D080033AE17D0FF0E3014256EFF0E3114266E39
:101D1800FF0E3214276E7F0E3314286E25502610BE
:101D280027102810D8B403D0010E356E02D01DB08C
:101D3800FBD73550D8B41FD0010E1D26000E1E2229
:101D48001F22202220A017D01DC025F01EC026F07B
:101D58001FC027F020C028F0283428322732263226
:101D6800253225C01DF026C01EF027C01FF028C050
:101D780020F02E4A2F2A2FBE10D02F5003E12E28F4
:101D8800D8A00BD0000E2F6E2E68000E1D6E000E10
:101D98001E6E000E1F6E000E206E2FBE05D02F5037
:101DA80011E12E04D8B00ED0000E2F6E000E2E6E4C
:101DB800000E1D6E000E1E6E000E1F6E000E206EB1
:101DC800000E2D6E2EC034F034A002D01F8E01D02C
:101DD8001F9ED8903430206E0ED722C03AF023C010
:101DE8003BF024C03CF025C03DF026C03EF027C0A3
:101DF8003FF028C040F029C041F041AE02D0010EAA
:101E080001D0000E386E396A38503910D8B410D065
:101E1800411E401E3F1E3E1E3D1E3C1E3B1E3A6C90
:101E2800000E3B223C223D223E223F2240224122FC
:101E3800F9AF5992F9BF05D0F95108E1F805D8B0C2
:101E480005D0000E356E010E346E04D0F8C034F0A3
:101E5800F9C035F0F6C036F0F7C037F03850391011
:101E6800D8A402D059A403D03606D8A03706000E4D
:101E7800436E4F0E426E000E0101676F7CD0420622
:101E8800D8A04306180E4224D96E010E4320DA6EFC
:101E98003AC004F03BC005F03CC006F03DC007F076
:101EA8003EC008F03FC009F040C00AF041C00BF046
:101EB8000A0E0C6E000E0D6E000E0E6E000E0F6EEA
:101EC800000E106E000E116E000E126E000E136ED4
:101ED800C3EC13F004C02AF005C02BF006C02CF0A8
:101EE80007C02DF008C02EF009C02FF00AC030F04E
:101EF8000BC031F02AC016F02CC017F01DEC1DF0F5
:101F08001650300FDF6E3406D8A035063606D8A036
:101F180037063AC004F03BC005F03CC006F03DC0AF
:101F280007F03EC008F03FC009F040C00AF041C0C9
:101F38000BF00A0E0C6E000E0D6E000E0E6E000EEB
:101F48000F6E000E106E000E116E000E126E000E57
:101F5800136E7FEC12F004C03AF005C03BF006C0E7
:101F68003CF007C03DF008C03EF009C03FF00AC091
:101F780040F00BC041F043BE1FD0435003E1420480
:101F8800D8A01AD03A503B103C103D103E103F10DC
:101F980040104110D8A473D735BE05D0355002E1A2
:101FA8003404D8B06CD737BE07D0375003E13604B5
:101FB800D8A002D059B263D738503910D8A402D06B
:101FC80059A417D04206D8A0430638503910D8A4CF
:101FD80004D0000E336E2B0E03D0000E336E2D0E80
:101FE800326E180E4224D96E010E4320DA6E32C0CA
:101FF800DFFF20C015F021C016F0180E4224176E1E
:10200800010E4320186E36C019F037C01AF018ECCC
:1020180019F015C020F016C021F01200F9AF59923E
:10202800F9BF05D0F95108E1F805D8B005D0000E80
:10203800336E010E326E04D0F8C032F0F9C033F0BE
:10204800F6C034F0F7C035F022C036F023C037F0C0
:1020580024C038F025C039F026C03AF027C03BF03C
:1020680028C03CF029C03DF0000E3F6E4F0E3E6E7A
:10207800000E0101676F76D03E06D8A03F06180E05
:102088003E24D96E010E3F20DA6E36C004F037C008
:1020980005F038C006F039C007F03AC008F03BC078
:1020A80009F03CC00AF03DC00BF00A0E0C6E000EA1
:1020B8000D6E000E0E6E000E0F6E000E106E000EEE
:1020C800116E000E126E000E136ED5EC17F004C0E0
:1020D8002AF005C02BF006C02CF007C02DF008C070
:1020E8002EF009C02FF00AC030F00BC031F02A5092
:1020F800300FDF6E3206D8A033063406D8A0350676
:1021080036C004F037C005F038C006F039C007F013
:102118003AC008F03BC009F03CC00AF03DC00BF0E3
:102128000A0E0C6E000E0D6E000E0E6E000E0F6E77
:10213800000E106E000E116E000E126E000E136E61
:10214800ABEC16F004C036F005C037F006C038F026
:1021580007C039F008C03AF009C03BF00AC03CF0AB
:102168000BC03DF03E503F10D8B41AD0365037104F
:10217800381039103A103B103C103D10D8A47CD7C9
:1021880033BE05D0335002E13204D8B075D735BE1E
:1021980007D0355003E13404D8A002D059B26CD727
:1021A80020C015F021C016F0180E3E24176E010E3F
:1021B8003F20186E34C019F035C01AF018EC19F029
:1021C80015C020F016C021F0120010C146F011C150
:1021D80047F012C148F013C149F036C046F037C085
:1021E80047F038C048F039C049F0810E3A6EFF0E0A
:1021F8003B6E46C03CF047C03DF048C03EF049C089
:102208003FF0180E05D0D8903F323E323D323C3276
:10221800E82EF9D73C503A24446E000E3B20456E18
:1022280045BE0FD0455004E1170E445CD8A009D034
:1022380036C036F037C037F038C038F039C039F01A
:10224800120045BE5BD044C03AF0FF0E3B6EFF0E55
:102258003C6E7F0E3D6E000E3E6E3A6601D007D092
:102268003E343E323D323C323B323A2EF6D73BC00A
:1022780040F03CC041F03DC042F03EC043F0405009
:1022880046143A6E415047143B6E425048143C6E17
:10229800435049143D6E3A503B103C103D10D8B4A1
:1022A800C7D746C03AF047C03BF048C03CF049C0E9
:1022B8003DF0200E05D0D8903D323C323B323A32C8
:1022C800E82EF9D73A50D8B408D0405046264150A5
:1022D80047224250482243504922401C3A6E411C32
:1022E8003B6E421C3C6E431C3D6E3A5046163B50BA
:1022F80047163C5048163D50491632D046C03AF071
:1023080047C03BF048C03CF049C03DF0200E05D026
:10231800D8903D323C323B323A32E82EF9D73A6611
:1023280008D0000E466E000E476E000E486E000E76
:1023380016D0D89046343A6E47343B6E48343C6EDB
:1023480049343D6E3A503B103C103D10D8B408D08B
:10235800000E466E000E476E800E486EBF0E496E28
:1023680046C036F047C037F048C038F049C039F0A9
:102378001200EDEC1DF0DEC0F2F0DFC0F3F0FC0E51
:10238800C76F3F0EC86FDEEC1DF0F251F311D8B4E1
:102398000BD09A0EC76F3F0EC86FDEEC1DF0F2C06F
:1023A800E0F0F3C0E1F01200000EE56F000EE46FFC
:1023B800000E056E0A0E046EE9EC1CF0E60E000134
:1023C800AD6FEA0EAE6FE1EC14F0ADC0F2F0AEC046
:1023D800F3F0F251F311D8B40AD0E44BE52BE5BF82
:1023E80006D0E55108E1290EE45DD8B004D0F251D9
:1023F800F311D8A4DDD7F251F311D8B419D0E0C045
:10240800D9FFE1C0DAFF000EDE6E000EDE6E000EB0
:10241800DE6E000EDD6EE2C0D9FFE3C0DAFF000E0B
:10242800DE6E000EDE6E000EDE6E000EDD6EB7D7BD
:10243800E6C004F0E7C005F0E8C006F0E9C007F020
:10244800010E23EC13F004C0EEF005C0EFF006C057
:10245800F0F007C0F1F0EEC01DF0EFC01EF0F0C0C4
:102468001FF0F1C020F0000E216E000E226E7A0ED1
:10247800236E440E246EADEC0DF0E0C0D9FFE1C030
:10248800DAFF1DC0DEFF1EC0DEFF1FC0DEFF20C05A
:10249800DEFFEAC004F0EBC005F0ECC006F0EDC0CA
:1024A80007F0010E23EC13F004C0EEF005C0EFF0C6
:1024B80006C0F0F007C0F1F0EEC01DF0EFC01EF04E
:1024C800F0C01FF0F1C020F0000E216E000E226E49
:1024D8007A0E236E440E246EADEC0DF0E2C0D9FFE7
:1024E800E3C0DAFF1DC0DEFF1EC0DEFF1FC0DEFF37
:1024F80020C0DEFF54D7000E156E13AE12D0131E87
:10250800121E111E101E0F1E0E1E0D1E0C6C000E2C
:102518000D220E220F221022112212221322010E46
:10252800156E0BAE12D00B1E0A1E091E081E071EC2
:10253800061E051E046C000E05220622072208222C
:1025480009220A220B22010E151A20EE16F0070E98
:10255800DE6AE806FDE20C500D100E100F10101088
:10256800111012101310D8B446D0010E146E0AD0F0
:10257800D8900C360D360E360F3610361136123608
:102588001336142A13AEF4D7D890163617361836E1
:1025980019361A361B361C361D360C50045C0D5085
:1025A80005580E5006580F5007581050085811502B
:1025B800095812500A5813500B58D8A011D00C5073
:1025C800045E0D50055A0E50065A0F50075A105007
:1025D800085A1150095A12500A5A13500B5A1680A9
:1025E800D89013321232113210320F320E320D32AD
:1025F8000C32142EC9D71550D8B410D01D1E1C1E6D
:102608001B1E1A1E191E181E171E166C000E1722E6
:10261800182219221A221B221C221D2216C004F07D
:1026280017C005F018C006F019C007F01AC008F066
:102638001BC009F01CC00AF01DC00BF012000C6E84
:102648000C50D8A407AE1AD004C008F005C009F091
:1026580006C00AF007C00BF0081E091E0A1E0B1E52
:10266800082A000E09220A220B2208C00EF009C00F
:102678000FF00AC010F00BC011F008D004C00EF023
:1026880005C00FF006C010F007C011F00450051087
:1026980006100710D8A409D0000E046E000E056EAF
:1026A800000E066E000E076E1200960E0D6E06D016
:1026B8000D2AD890113210320F320E32000E0E143D
:1026C800086E000E0F14096E000E10140A6EFE0E2E
:1026D80011140B6E085009100A100B10D8B40DD045
:1026E800E7D70D2A010E0E26000E0F221022112206
:1026F800D890113210320F320E32000E0E14086EBE
:10270800000E0F14096E000E10140A6EFF0E11143D
:102718000B6E085009100A100B10D8B407D0E1D777
:102728000D06D8900E360F361036113610BE03D06F
:10273800020E0D60F5D70DA0109ED8900D320DC079
:1027480008F0096A0A6A0B6A08C00BF00A6A096A83
:10275800086A08500E1209500F120A5010120B5036
:1027680011120C50D8A407AE01D0118E0EC004F07F
:102778000FC005F010C006F011C007F01200000EDF
:10278800156E0BAE12D00B1E0A1E091E081E071E60
:10279800061E051E046C000E0522062207220822CA
:1027A80009220A220B22010E156E13AE10D0131E39
:1027B800121E111E101E0F1E0E1E0D1E0C6C000E7A
:1027C8000D220E220F2210221122122213220C5047
:1027D8000D100E100F101010111012101310D8B485
:1027E8003CD0010E146E0AD0D8900C360D360E3639
:1027F8000F361036113612361336142A13AEF4D7A4
:102808000C50045C0D5005580E5006580F500758D0
:10281800105008581150095812500A5813500B58A4
:10282800D8A010D00C50045E0D50055A0E50065A10
:102838000F50075A1050085A1150095A12500A5A84
:1028480013500B5AD89013321232113210320F3201
:102858000E320D320C32142ED3D71550D8B410D0F6
:102868000B1E0A1E091E081E071E061E051E046CE6
:10287800000E052206220722082209220A220B221C
:1028880004C004F005C005F006C006F007C007F054
:1028980008C008F009C009F00AC00AF00BC00BF024
:1028A8001200000E146E000E136E000E126E000E53
:1028B800116E02D00B4A0C2A0BC0F6FF0CC0F7FFB2
:1028C8000800F550200AD8B4F5D7F70E0D6EFF0EA4
:1028D8000E6E0BC0F6FF0CC0F7FF0800F5500F6E28
:1028E800106A0D500F260E50102210500CE1050EE4
:1028F8000F5CD8B008D0DED7000E126E010E116E34
:102908000B4A0C2A2ED00BC0F6FF0CC0F7FF0800AC
:10291800F5500D6E0E6A0E50000AD8A422D00D5044
:102928002B0AD8B4EDD7060AD8B4E6D71AD013C004
:1029380004F014C005F0000E076E0A0E066EA9EC2E
:102948001DF00BC0F6FF0CC0F7FF0800F550045E41
:10295800000E055A300E0424136E000E0520146E66
:10296800CFD7D00E0D6EFF0E0E6E0BC0F6FF0CC04B
:10297800F7FF0800F5500F6E106A0D500F260E5025
:102988001022105004E10A0E0F5CD8A0D0D71150C5
:102998001210D8A40DD013C00DF014C00EF00D1EE7
:1029A8000E1E0D4A0E2A0DC00BF00EC00CF01200C0
:1029B80013C00BF014C00CF01200250EAA6F000E05
:1029C800AC6F020EAB6F440ECDEC18F0AAC023F02A
:1029D800ABC024F00D0E1E6E25C004F026C005F015
:1029E800066A076A730E086E550E096E000E0A6EA7
:1029F800000E0B6EAAEC1BF01E6601D007D0073440
:102A080007320632053204321E2EF6D7380E042459
:102A18001F6E500E0520206EFF0E0620216EFF0E41
:102A28000720226E0001AD51D96EDA6A1FC0DEFFA1
:102A380020C0DEFF21C0DEFF22C0DEFF0D0E1E6EAD
:102A480027C004F028C005F0066A076A090E086E58
:102A58003D0E096E000E0A6E000E0B6EAAEC1BF0FE
:102A68001E6601D007D00734073206320532043219
:102A78001E2EF6D7900E04241F6EE80E0520206E39
:102A8800FF0E0620216EFF0E0720226E0001AE51B8
:102A9800D96EDA6A1FC0DEFF20C0DEFF21C0DEFF6C
:102AA80022C0DEFF23C0ADF024C0AEF0120000014A
:102AB800A06F13C004F014C005F0000E076E030EDB
:102AC800066EA9EC1DF004C0A1F005C0A2F0600ECE
:102AD8000001A76FA7C00DF0A1C00EF0A2C00FF0B3
:102AE800A05112EC1EF00001A56FA66BA5BFA607AA
:102AF800A551A611D8B405D0A5C012F0A6C013F0F0
:102B08001200000EA96F000EA86F000EA46F000E31
:102B1800A36F37D0A751A8250B6E000E0D6E020EBD
:102B28000C6EA751A825D96EDA6A020ED926DF5095
:102B38000E6ECFEC1DF0A56FA66BA5BFA607A5511D
:102B4800A611D8A4D9D7A751A825D96EDA6A1250E8
:102B5800A325E16EE26ADFCFE7FFA34BA42BA751C1
:102B6800A825D96EDA6A010ED9261250A325E16E7E
:102B7800E26ADFCFE7FFA34BA42B030EA827000EC2
:102B8800A923A151A85DA251A959D8A0C3D7000E65
:102B9800136E000E126E120004C00BF005C00CF08C
:102BA80006C00DF007C00EF00806D8A009060828D0
:102BB8000FE10928D8A40CD0000E056E000E046E93
:102BC80012000B4A0C2A0D4A0E2A0806D8A009063C
:102BD8000BC0F6FF0CC0F7FFF86A020EF76403D0CB
:102BE8000800F55005D0F6CFE1FFF7CFE2FFE75038
:102BF8000009D8B427D00DC0F6FF0EC0F7FF0800B3
:102C0800F5500009D8B41ED008500910D8B41AD00D
:102C18000DC0F6FF0EC0F7FF0800F5CF0AF00BC095
:102C2800F6FF0CC0F7FFF86A020EF76403D008003D
:102C3800F55005D0F6CFE1FFF7CFE2FFE7500A18CD
:102C4800D8B4BFD70BC0F6FF0CC0F7FFF86A020E66
:102C5800F76403D00800F55005D0F6CFE1FFF7CFB1
:102C6800E2FFE7500A6E0DC0F6FF0EC0F7FF08003E
:102C7800F5500A5C046E056AD8A005061200000E1D
:102C88001D14256E000E1E14266E800E1F14276E4E
:102C98007F0E2014286E2550261027102810D8A43F
:102CA80008D0000E1D6E000E1E6E000E1F6E000E68
:102CB800206E000E2114256E000E2214266E800E42
:102CC8002314276E7F0E2414286E255026102710F3
:102CD8002810D8A408D0000E216E000E226E000E17
:102CE800236E000E246E20AE09D01D6C1E1ED8B0B7
:102CF8001E2A1F1ED8B01F2A800E205624AE09D0C7
:102D0800216C221ED8B0222A231ED8B0232A800E76
:102D18002456000E1D1A000E1E1A000E1F1A800ED1
:102D2800201A000E211A000E221A000E231A800EF5
:102D3800241A21501D5C22501E5823501F5824501D
:102D48002058D8B002D0D8901200D880120020EEB7
:102D580014F0070EDE6AE806FDE20C500D100E10A6
:102D68000F101010111012101310D8B446D0010E05
:102D78001C6E0AD0D8900C360D360E360F3610362B
:102D88001136123613361C2A13AEF4D7D8901436DF
:102D9800153616361736183619361A361B360C50AD
:102DA800045C0D5005580E5006580F500758105027
:102DB80008581150095812500A5813500B58D8A0E7
:102DC80011D00C50045E0D50055A0E50065A0F5083
:102DD800075A1050085A1150095A12500A5A1350DB
:102DE8000B5A1480D89013321232113210320F322B
:102DF8000E320D320C321C2EC9D714C004F015C087
:102E080005F016C006F017C007F018C008F019C082
:102E180009F01AC00AF01BC00BF0120014C10EF022
:102E280015C10FF016C110F017C111F004C00EF053
:102E380005C00FF006C010F007C011F00EC008F072
:102E48000FC009F010C00AF011C00BF0180E05D021
:102E5800D8900B320A3209320832E82EF9D70850D6
:102E68000C6E0D6A0C500D10D8A419D0D8900E34E1
:102E7800086E0F34096E10340A6E11340B6E085048
:102E880009100A100B10D8A405D0000E056E020E0A
:102E9800046E1200000E056E030E046E12000C285C
:102EA8000D10D8A41CD00EC008F00FC009F010C037
:102EB8000AF011C00BF0090ED890083609360A3608
:102EC8000B36E82EF9D7085009100A100B10D8A4B1
:102ED80002D0010E01D0000E046E056A1200000E29
:102EE800056E040E046E1200063407340D6E0D5084
:102EF800D8A409D0000E046E000E056E000E066EF2
:102F0800000E076E120004C008F005C009F006C0E4
:102F18000AF007C00BF0200E05D0D8900B320A3209
:102F280009320832E82EF9D708500C6E068EFF0ECB
:102F38000416FF0E0516FF0E0616000E0716960E4F
:102F48000D5E0DAE0DD00D50800A970FD8A0D2D7C8
:102F5800D89007320632053204320D3EF9D70DD02B
:102F68001F0E0D6407D0C6D7D8900436053606362E
:102F780007360D060D50D8A4F7D70C50D8B408D092
:102F8800071E061E051E046C000E052206220722D7
:102F980004C004F005C005F006C006F007C007F03D
:102FA80012000C500D100E100F10101011101210EE
:102FB8001310D8B43CD0010E146E0AD0D8900C3639
:102FC8000D360E360F361036113612361336142AD1
:102FD80013AEF4D70C50045C0D5005580E5006582B
:102FE8000F500758105008581150095812500A58D5
:102FF80013500B58D8A010D00C50045E0D50055A31
:103008000E50065A0F50075A1050085A1150095AB4
:1030180012500A5A13500B5AD890133212321132E6
:1030280010320F320E320D320C32142ED3D704C0A8
:1030380004F005C005F006C006F007C007F008C098
:1030480008F009C009F00AC00AF00BC00BF0120022
:10305800890EE86FE80ED96F000EDB6F010EDA6F8C
:10306800440EFBEC1DF0ED6FEE6BEDBFEE07ED517E
:10307800EE11D8B405D0EDC0DEF0EEC0DFF01200DE
:10308800E80E0C6E030E0D6E000E0E6E000E0F6E27
:1030980007EC1EF0E90EAA6F000EAC6F020EAB6FC4
:1030A800440ECDEC18F0AAC0EDF0ABC0EEF0E9513B
:1030B800E06FEA51E16FE26BE36BE1C0E3F0E0C07F
:1030C800E2F0E16BE06BEB51E011E46FEC51E111E0
:1030D800E56F000EE211E66F000EE311E76FDEC048
:1030E800D9FFDFC0DAFFE4C0DEFFE5C0DEFFE6C0DF
:1030F800DEFFE7C0DEFFBFD7F651F711D8A405D031
:10310800F6C014F0F7C015F006D0FF0EF625146EC1
:10311800FF0EF721156E59A009D010C005F0066AF8
:103128000EC007F00FC008F0E4EC1AF015AE04D09A
:10313800000E156E000E146E000E136E000E126E49
:103148000CD0000E066E200E056E0EC007F00FC0E4
:1031580008F0E4EC1AF0124A132A1450125C1350C7
:10316800800A116E1550800A1158D8A0EAD759B0B4
:1031780009D010C005F0066A0EC007F00FC008F0AD
:10318800E4EC1AF0010E12240E6E000E13200F6EDE
:103198001200196EAAC012F0ABC013F0ACC014F044
:1031A80019505BEC15F012C01AF013C01BF01A503E
:1031B8001B10D8B405D01AC0AAF01BC0ABF012007F
:1031C800000E1D6E23D01D50020DAA51F3241C6E53
:1031D8001C50D96EDA6ADF50156E1550176E166AD4
:1031E8001C50D96EDA6A010ED926DF50186E1850B5
:1031F8001612000E17121D50020DAA51F324D96E93
:10320800DA6A16C0DEFF17C0DDFF1D2A1D50156ED5
:10321800166AAB51155CAC511658D8A0D4D7000E1D
:10322800AB6F000EAA6F120059A00AD017C00EF09B
:1032380018C00FF015C010F016C011F0CDEC1CF03E
:103248001ABE05D019C01EF01AC01FF004D0000E17
:103258001F6E000E1E6E000E1D6E000E1C6E0CD032
:10326800000E066E200E056E15C007F016C008F099
:10327800E4EC1AF01C4A1D2A1E501C5C1D50800AE2
:103288001B6E1F50800A1B58D8A0EAD759B00AD025
:1032980017C00EF018C00FF015C010F016C011F0CE
:1032A800CDEC1CF017C004F018C005F094EC1DF02C
:1032B8001E500424156E1F500520166E1200F29E33
:1032C800000E0F01386F100E396F000E3A6F000EA6
:1032D8003B6F000E3C6F3F0E926E9368BB0E946E70
:1032E800FB0E956E9668000EB86E000EAB6E000E63
:1032F800AC6EB896B89AAC84CF0EAF6EAC98AB8E65
:10330800AB88AB9AAC9CAB9CAC8AAE50BA80BA92F4
:10331800BA86BA88BA8ABA8CF90EBB6E9E92BA84FB
:10332800000EF26E000E9D6E000EA06E000EA36ED3
:10333800000E7A6E000E7D6EF28C9D8A9E9A9D908C
:103348009D82A0927D90F29AA39EF28E1200000EAA
:1033580004140C6E000E05140D6E800E06140E6E0D
:103368007F0E07140F6E0C500D100E100F10D8A4FE
:1033780008D0000E046E000E056E000E066E000EDC
:10338800076E000E08140C6E000E09140D6E800EE8
:103398000A140E6E7F0E0B140F6E0C500D100E10CB
:1033A8000F10D8A408D0000E086E000E096E000E8B
:1033B8000A6E000E0B6E085004180AE10950051831
:1033C80007E10A50061804E10B500718D8B402D0D8
:1033D800D8901200D8801200000E096E07AE06D0F1
:1033E800066C071ED8B0072A010E096E05AE06D076
:1033F800046C051ED8B0052A010E091A000E0B6EC2
:10340800000E0A6E06500710D8B41CD0010E086EC4
:1034180004D0D89006360736082A07AEFAD7D890CF
:103428000A360B360650045C07500558D8A005D05C
:103438000650045E0750055A0A80D89007320632B3
:10344800082EEDD70950D8B404D00A6C0B1ED8B09A
:103458000B2A0AC004F00BC005F01200000E216E02
:10346800000E226EA00E236E400E246E000E086E13
:10347800000E096E100E0A6E410E0B6E46C004F067
:1034880047C005F048C006F049C007F091EC0AF0C3
:1034980004C01DF005C01EF006C01FF007C020F0D4
:1034A800ADEC0DF01DC036F01EC037F01FC038F06F
:1034B80020C039F0000E3A6E000E3B6E000E3C6ED6
:1034C800420E3D6E27EC0CF036C046F037C047F090
:1034D80038C048F039C049F01200D56F000E00011D
:1034E800D86F52EC1EF0000E056E0001D55128EC85
:1034F8001EF047EC1EF00001D813D851D8A416D0FE
:10350800000ED76F0ED0D451D725D96EDA6ADF50A6
:10351800D66FD6513AEC1EF047EC1EF00001D813D6
:10352800D72BD351D75DD8B00ED0EDD7000E056E8E
:10353800640E046EE9EC1CF0B00E0001C76F3F0E7C
:10354800C86FDEEC1DF04DEC1EF00001D8511200E2
:10355800000E096E05AE06D0046C051ED8B0052A0B
:10356800010E096E07AE04D0066C071ED8B0072AF4
:1035780006500710D8B418D0010E086E04D0D890A1
:1035880006360736082A07AEFAD70650045C0750F5
:103598000558D8A004D00650045E0750055AD890A4
:1035A80007320632082EF1D70950D8B404D0046C7B
:1035B800051ED8B0052A04C004F005C005F01200A5
:1035C80007500810D8B404D007500810D8A404D065
:1035D800055041EC1EF0120020EE09F00750D926E4
:1035E8000850DA22DE50DE10D8B416D020EE09F0EA
:1035F8000750D9260850DA2210EE03F00750E126CA
:103608000850E222DE50E65CE650800A0D6EDE507D
:10361800800A0D58D8B0120020EE03F00750D926C2
:103628000850DA22DE2A000EDD221200000E010107
:103638006A6F000E6B6F000E6C6F000E6D6F6A0E76
:103648000001DE6F010EDF6F2CEC18F0DEC068F1B0
:10365800DFC069F1010168516911D8A40DD0EFC02C
:10366800D9FFF0C0DAFF6AC1DEFF6BC1DEFF6CC1B3
:10367800DEFF6DC1DEFF08D0EFC0D9FFF0C0DAFF72
:10368800DE6ADE6ADE6ADD6A68C1EFF069C1F0F001
:1036980012000B6E010E0C6E070E086402D0FF0EAE
:1036A800120052EC1EF0000E056E0B50700F28EC45
:1036B8001EF047EC1EF00D6E0D50D8A415D0010E6B
:1036C8000C6E08C009F00CC00AF0092A02D0D89084
:1036D8000A36092EFCD70A500C6E0C503AEC1EF034
:1036E80047EC1EF00D100D6E4DEC1EF00D50120043
:1036F8000A6E000E0C6E52EC1EF0010E056E0A509A
:1037080028EC1EF047EC1EF00C120C50D8B402D076
:103718000C501200000E0B6E09500B24D96EDA6A99
:1037280032EC1EF0DF6E0B2A08500B5CD8B004D0C8
:10373800010E1DEC1EF003D0000E1DEC1EF008500B
:103748000B5CD8A0E9D74DEC1EF0E2D7000E0C6E4A
:10375800000E0D6E000E0E6E000E0F6E04A008D047
:1037680008500C2609500D220A500E220B500F2229
:10377800D890083609360A360B36D8900732063202
:10378800053204320450051006100710D8A4E6D7F5
:103798000CC004F00DC005F00EC006F00FC007F015
:1037A800120006C00AF007C00BF004C00CF005C0F8
:1037B8000DF00A50086E0B50096E0A4A0B2A08C011
:1037C800F6FF09C0F7FFF86A0CC0D9FF0DC0DAFF91
:1037D8000C4A0D2A020EF76403D00800F55005D0F4
:1037E800F6CFE1FFF7CFE2FFE750DF6EDF50D8B446
:1037F8001200DFD7C4C055F0C5C056F0000EF56FF3
:10380800000EF46F0FD0C2C097F0C3C098F0550EE9
:10381800996FC6C09AF06FEC05F000019751F42734
:103828009851F52355C0F6FF56C0F7FF0800F5502C
:103838000009D8A4E8D7F4C0C2F0F5C0C3F012005C
:10384800AE0EF66E3C0EF76E000EF86E0900F5CF60
:10385800FCF00900F5CFFDF00900F5CFFEF001EE10
:1038680000F0680EEE6AE806FDE100EEF4F0080EDE
:10387800EE6AE806FDE15B6A5A6A596A5C905C92F6
:10388800000EF86E0001F1EF08F00A68000E086EED
:10389800000E076E17D004500724D96EDA6ADF507D
:1038A8000A1A080E096E0AAE04D00A500A24310A10
:1038B80002D00A500A240A6E09060950D8A4F3D780
:1038C800074A082A0550075C06500858D8A0E3D7CD
:1038D8000A501200000E4A1A000E4B1A000E4C1A1B
:1038E800800E4D1A46C036F047C037F048C038F051
:1038F80049C039F04AC03AF04BC03BF04CC03CF0EC
:103908004DC03DF027EC0CF036C046F037C047F00C
:1039180038C048F039C049F01200010E0A6E200E76
:1039280004180510D8B414D0F70E066EFF0E076EF3
:1039380004C008F005C009F00650082607500922FF
:10394800095004E1050E085CD8A002D0000E0A6EEA
:103958000AC004F0056A1200BF0E0C6EFF0E0D6E51
:103968000AC00EF00BC00FF00C500E260D500F229F
:103978000F500AE11A0E0E5CD8B006D0200E0A10BD
:103988000A6E0B500B6E12000AC00AF00BC00BF047
:103998001200000E146E000E136E0BD012C005F04C
:1039A800066A10C007F011C008F0E4EC1AF0134AD8
:1039B800142A13500E24D96E14500F20DA6EDF50DB
:1039C800126E1250D8B41200E9D7000E076E000E1E
:1039D800066E0ED0010E096EF40E086E03D00806AE
:1039E800D8A0090608500910D8A4F9D7064A072A0A
:1039F8000450065C05500758D8B01200EBD7086E83
:103A080052EC1EF0000E056E0850700F28EC1EF0E8
:103A180047EC1EF0096E0950D8A407D0000E3AEC06
:103A28001EF047EC1EF00910096E4DEC1EF009500F
:103A3800120017BE05D0175010E11604D8B00DD0EB
:103A480016C018F017C019F0181E191E184A192A9E
:103A580018C016F019C017F0120016C016F017C0DB
:103A680017F01200BF0E066EFF0E076E04C008F0B6
:103A780005C009F00650082607500922095006E13A
:103A88001A0E085CD8B002D0010E01D0000E046EE8
:103A9800056A1200D00E066EFF0E076E04C008F00D
:103AA80005C009F00650082607500922095006E10A
:103AB8000A0E085CD8B002D0010E01D0000E046EC8
:103AC800056A120004C008F005C009F006C00AF033
:103AD80007C00BF00806000E095A0A5A0B5A0828A4
:103AE800F9E10928F7E10A28F5E10B28D8B4120012
:103AF800F1D70450051006100710D8B408D0000EEE
:103B0800041A000E051A000E061A800E071A04C0C1
:103B180004F005C005F006C006F007C007F0120063
:103B280004C006F005C007F002D0044A052A04C004
:103B3800D9FF05C0DAFFDF50D8A4F7D70650045CD8
:103B4800046E07500558056E120004500602F3CFA4
:103B580008F0F4CF09F004500702F3500926055085
:103B68000602F350092608C004F009C005F0120047
:103B7800000EC66E000EC56E000ECB6EC68AC686D7
:103B8800C694C692C6909F0EC86E000EC76E9E96CB
:103B98004DEC1EF012000BC004F00CC005F00DC077
:103BA80006F049EC1CF00E18D8B402D0FF0E120033
:103BB800000E1200C90E576E000EC26F000EC36FC2
:103BC800C7C0C4F0C8C0C5F0570EC66FFEEC1BF0E6
:103BD8001200FE0ED96F000EDB6F010EDA6F440E75
:103BE800FBEC1DF0DE6FDF6BDEBFDF071200DC6F62
:103BF800DAC0D3F0D9C0D4F00001DC5171EC1AF06E
:103C0800DD6FDD5112000CC004F00DC005F00EC0D0
:103C180006F00FC007F066EC1DF01200106E0EC023
:103C280008F00DC009F010507CEC1BF0116E11501B
:103C38001200046E04A002D0C59A01D0C58AC588B6
:103C48009EA6FED79E961200066E06500624FE0B10
:103C58000510076E07503AEC1EF01200C5869EA6A6
:103C6800FED79E96C9CF04F004501200046E04C01B
:103C7800C9FF9EA6FED79E961200046E9EA8FED788
:103C880004C0ADFF1200000EC5BC010E046E045046
:103C98001200C5849EA6FED79E961200C5809EA6D9
:093CA800FED79E9612001027FDC4
:103EBC00000D0D493243206D617374657220496E9B
:103ECC00697469616C697A65642E20436865636BFB
:103EDC00696E672073657269616C206E756D6265C1
:103EEC0072732E2E2E000D4552524F52204E6F20C3
:103EFC00726573706F6E7365205348542073656ED2
:103F0C00736F7220232564000D2325642053656E86
:103F1C00736F722073657269616C204E756D62658A
:103F2C00723A20256C750054656D703A2025302E40
:103F3C003166202563462C2052483A2025302E31FC
:103F4C00662525004552524F522072656164696E98
:103F5C00672073656E736F72203D202564000D0D14
:103F6C005354415254494E472053485434582054CA
:103F7C00455354202331000D4D756C7469706C657C
:103F8C00786572204552524F523A202564000D73C9
:103F9C00687434785F6D65617375726520657272D3
:103FAC006F7273000D534C4156452057524954457E
:103FBC00204E4F2041434B000D0D547269616C2013
:103FCC0023256C752E2E2E000D53656E736F72208B
:103FDC0023256400494E46004E414E00696E660032
:103FEC006E616E006C64006C66006C69000D0D00F7
:043FFC00203E000063
:020000040020DA
:08000000FFFFFFFFFFFFFFFF00
:020000040030CA
:0E000000FF331F3CFFBD85FF03C003E003403C
:00000001FF
